{
  "contractName": "Voting",
  "abi": [
    {
      "inputs": [
        {
          "internalType": "string[]",
          "name": "_candidateNames",
          "type": "string[]"
        },
        {
          "internalType": "uint256",
          "name": "_durationInMinutes",
          "type": "uint256"
        }
      ],
      "stateMutability": "nonpayable",
      "type": "constructor"
    },
    {
      "inputs": [
        {
          "internalType": "uint256",
          "name": "",
          "type": "uint256"
        }
      ],
      "name": "candidates",
      "outputs": [
        {
          "internalType": "string",
          "name": "name",
          "type": "string"
        },
        {
          "internalType": "uint256",
          "name": "voteCount",
          "type": "uint256"
        }
      ],
      "stateMutability": "view",
      "type": "function",
      "constant": true
    },
    {
      "inputs": [
        {
          "internalType": "address",
          "name": "",
          "type": "address"
        }
      ],
      "name": "voters",
      "outputs": [
        {
          "internalType": "bool",
          "name": "",
          "type": "bool"
        }
      ],
      "stateMutability": "view",
      "type": "function",
      "constant": true
    },
    {
      "inputs": [],
      "name": "votingEnd",
      "outputs": [
        {
          "internalType": "uint256",
          "name": "",
          "type": "uint256"
        }
      ],
      "stateMutability": "view",
      "type": "function",
      "constant": true
    },
    {
      "inputs": [],
      "name": "votingStart",
      "outputs": [
        {
          "internalType": "uint256",
          "name": "",
          "type": "uint256"
        }
      ],
      "stateMutability": "view",
      "type": "function",
      "constant": true
    },
    {
      "inputs": [
        {
          "internalType": "string",
          "name": "_name",
          "type": "string"
        }
      ],
      "name": "addCandidate",
      "outputs": [],
      "stateMutability": "nonpayable",
      "type": "function"
    },
    {
      "inputs": [
        {
          "internalType": "uint256",
          "name": "_candidateIndex",
          "type": "uint256"
        }
      ],
      "name": "vote",
      "outputs": [],
      "stateMutability": "nonpayable",
      "type": "function"
    },
    {
      "inputs": [],
      "name": "getAllVotesOfCandiates",
      "outputs": [
        {
          "components": [
            {
              "internalType": "string",
              "name": "name",
              "type": "string"
            },
            {
              "internalType": "uint256",
              "name": "voteCount",
              "type": "uint256"
            }
          ],
          "internalType": "struct Voting.Candidate[]",
          "name": "",
          "type": "tuple[]"
        }
      ],
      "stateMutability": "view",
      "type": "function",
      "constant": true
    },
    {
      "inputs": [],
      "name": "getVotingStatus",
      "outputs": [
        {
          "internalType": "bool",
          "name": "",
          "type": "bool"
        }
      ],
      "stateMutability": "view",
      "type": "function",
      "constant": true
    },
    {
      "inputs": [],
      "name": "getRemainingTime",
      "outputs": [
        {
          "internalType": "uint256",
          "name": "",
          "type": "uint256"
        }
      ],
      "stateMutability": "view",
      "type": "function",
      "constant": true
    }
  ],
  "bytecode": "0x608060405234801562000010575f80fd5b50604051620018c8380380620018c88339818101604052810190620000369190620003fa565b5f5b8251811015620000d3575f60405180604001604052808584815181106200006457620000636200045e565b5b602002602001015181526020015f815250908060018154018082558091505060019003905f5260205f2090600202015f909190919091505f820151815f019081620000b09190620006b9565b506020820151816001015550508080620000ca90620007ca565b91505062000038565b503360015f6101000a81548173ffffffffffffffffffffffffffffffffffffffff021916908373ffffffffffffffffffffffffffffffffffffffff16021790555042600381905550603c816200012a919062000816565b4262000137919062000860565b60048190555050506200089a565b5f604051905090565b5f80fd5b5f80fd5b5f80fd5b5f601f19601f8301169050919050565b7f4e487b71000000000000000000000000000000000000000000000000000000005f52604160045260245ffd5b620001a2826200015a565b810181811067ffffffffffffffff82111715620001c457620001c36200016a565b5b80604052505050565b5f620001d862000145565b9050620001e6828262000197565b919050565b5f67ffffffffffffffff8211156200020857620002076200016a565b5b602082029050602081019050919050565b5f80fd5b5f80fd5b5f67ffffffffffffffff8211156200023e576200023d6200016a565b5b62000249826200015a565b9050602081019050919050565b5f5b838110156200027557808201518184015260208101905062000258565b5f8484015250505050565b5f62000296620002908462000221565b620001cd565b905082815260208101848484011115620002b557620002b46200021d565b5b620002c284828562000256565b509392505050565b5f82601f830112620002e157620002e062000156565b5b8151620002f384826020860162000280565b91505092915050565b5f620003126200030c84620001eb565b620001cd565b9050808382526020820190506020840283018581111562000338576200033762000219565b5b835b818110156200038657805167ffffffffffffffff81111562000361576200036062000156565b5b808601620003708982620002ca565b855260208501945050506020810190506200033a565b5050509392505050565b5f82601f830112620003a757620003a662000156565b5b8151620003b9848260208601620002fc565b91505092915050565b5f819050919050565b620003d681620003c2565b8114620003e1575f80fd5b50565b5f81519050620003f481620003cb565b92915050565b5f80604083850312156200041357620004126200014e565b5b5f83015167ffffffffffffffff81111562000433576200043262000152565b5b620004418582860162000390565b92505060206200045485828601620003e4565b9150509250929050565b7f4e487b71000000000000000000000000000000000000000000000000000000005f52603260045260245ffd5b5f81519050919050565b7f4e487b71000000000000000000000000000000000000000000000000000000005f52602260045260245ffd5b5f6002820490506001821680620004da57607f821691505b602082108103620004f057620004ef62000495565b5b50919050565b5f819050815f5260205f209050919050565b5f6020601f8301049050919050565b5f82821b905092915050565b5f60088302620005547fffffffffffffffffffffffffffffffffffffffffffffffffffffffffffffffff8262000517565b62000560868362000517565b95508019841693508086168417925050509392505050565b5f819050919050565b5f620005a16200059b6200059584620003c2565b62000578565b620003c2565b9050919050565b5f819050919050565b620005bc8362000581565b620005d4620005cb82620005a8565b84845462000523565b825550505050565b5f90565b620005ea620005dc565b620005f7818484620005b1565b505050565b5b818110156200061e57620006125f82620005e0565b600181019050620005fd565b5050565b601f8211156200066d576200063781620004f6565b620006428462000508565b8101602085101562000652578190505b6200066a620006618562000508565b830182620005fc565b50505b505050565b5f82821c905092915050565b5f6200068f5f198460080262000672565b1980831691505092915050565b5f620006a983836200067e565b9150826002028217905092915050565b620006c4826200048b565b67ffffffffffffffff811115620006e057620006df6200016a565b5b620006ec8254620004c2565b620006f982828562000622565b5f60209050601f8311600181146200072f575f84156200071a578287015190505b6200072685826200069c565b86555062000795565b601f1984166200073f86620004f6565b5f5b82811015620007685784890151825560018201915060208501945060208101905062000741565b8683101562000788578489015162000784601f8916826200067e565b8355505b6001600288020188555050505b505050505050565b7f4e487b71000000000000000000000000000000000000000000000000000000005f52601160045260245ffd5b5f620007d682620003c2565b91507fffffffffffffffffffffffffffffffffffffffffffffffffffffffffffffffff82036200080b576200080a6200079d565b5b600182019050919050565b5f6200082282620003c2565b91506200082f83620003c2565b92508282026200083f81620003c2565b915082820484148315176200085957620008586200079d565b5b5092915050565b5f6200086c82620003c2565b91506200087983620003c2565b92508282019050808211156200089457620008936200079d565b5b92915050565b61102080620008a85f395ff3fe608060405234801561000f575f80fd5b5060043610610091575f3560e01c80634d6bda5f116100645780634d6bda5f1461011c578063581c281c1461013a57806385a3863514610158578063a3ec138d14610176578063efb98bcf146101a657610091565b80630121b93f14610095578063101158af146100b15780633477ee2e146100cf578063462e91ec14610100575b5f80fd5b6100af60048036038101906100aa9190610673565b6101c4565b005b6100b9610323565b6040516100c691906106ad565b60405180910390f35b6100e960048036038101906100e49190610673565b610329565b6040516100f7929190610750565b60405180910390f35b61011a600480360381019061011591906108aa565b6103dd565b005b610124610494565b6040516101319190610a3d565b60405180910390f35b610142610588565b60405161014f9190610a77565b60405180910390f35b6101606105a1565b60405161016d91906106ad565b60405180910390f35b610190600480360381019061018b9190610aea565b6105a7565b60405161019d9190610a77565b60405180910390f35b6101ae6105c4565b6040516101bb91906106ad565b60405180910390f35b60025f3373ffffffffffffffffffffffffffffffffffffffff1673ffffffffffffffffffffffffffffffffffffffff1681526020019081526020015f205f9054906101000a900460ff161561024e576040517f08c379a000000000000000000000000000000000000000000000000000000000815260040161024590610b5f565b60405180910390fd5b5f805490508110610294576040517f08c379a000000000000000000000000000000000000000000000000000000000815260040161028b90610bc7565b60405180910390fd5b5f81815481106102a7576102a6610be5565b5b905f5260205f2090600202016001015f8154809291906102c690610c3f565b9190505550600160025f3373ffffffffffffffffffffffffffffffffffffffff1673ffffffffffffffffffffffffffffffffffffffff1681526020019081526020015f205f6101000a81548160ff02191690831515021790555050565b60035481565b5f8181548110610337575f80fd5b905f5260205f2090600202015f91509050805f01805461035690610cb3565b80601f016020809104026020016040519081016040528092919081815260200182805461038290610cb3565b80156103cd5780601f106103a4576101008083540402835291602001916103cd565b820191905f5260205f20905b8154815290600101906020018083116103b057829003601f168201915b5050505050908060010154905082565b60015f9054906101000a900473ffffffffffffffffffffffffffffffffffffffff1673ffffffffffffffffffffffffffffffffffffffff163373ffffffffffffffffffffffffffffffffffffffff1614610435575f80fd5b5f60405180604001604052808381526020015f815250908060018154018082558091505060019003905f5260205f2090600202015f909190919091505f820151815f0190816104849190610e80565b5060208201518160010155505050565b60605f805480602002602001604051908101604052809291908181526020015f905b8282101561057f578382905f5260205f2090600202016040518060400160405290815f820180546104e690610cb3565b80601f016020809104026020016040519081016040528092919081815260200182805461051290610cb3565b801561055d5780601f106105345761010080835404028352916020019161055d565b820191905f5260205f20905b81548152906001019060200180831161054057829003601f168201915b50505050508152602001600182015481525050815260200190600101906104b6565b50505050905090565b5f600354421015801561059c575060045442105b905090565b60045481565b6002602052805f5260405f205f915054906101000a900460ff1681565b5f60035442101561060a576040517f08c379a000000000000000000000000000000000000000000000000000000000815260040161060190610f99565b60405180910390fd5b600454421061061b575f905061062c565b426004546106299190610fb7565b90505b90565b5f604051905090565b5f80fd5b5f80fd5b5f819050919050565b61065281610640565b811461065c575f80fd5b50565b5f8135905061066d81610649565b92915050565b5f6020828403121561068857610687610638565b5b5f6106958482850161065f565b91505092915050565b6106a781610640565b82525050565b5f6020820190506106c05f83018461069e565b92915050565b5f81519050919050565b5f82825260208201905092915050565b5f5b838110156106fd5780820151818401526020810190506106e2565b5f8484015250505050565b5f601f19601f8301169050919050565b5f610722826106c6565b61072c81856106d0565b935061073c8185602086016106e0565b61074581610708565b840191505092915050565b5f6040820190508181035f8301526107688185610718565b9050610777602083018461069e565b9392505050565b5f80fd5b5f80fd5b7f4e487b71000000000000000000000000000000000000000000000000000000005f52604160045260245ffd5b6107bc82610708565b810181811067ffffffffffffffff821117156107db576107da610786565b5b80604052505050565b5f6107ed61062f565b90506107f982826107b3565b919050565b5f67ffffffffffffffff82111561081857610817610786565b5b61082182610708565b9050602081019050919050565b828183375f83830152505050565b5f61084e610849846107fe565b6107e4565b90508281526020810184848401111561086a57610869610782565b5b61087584828561082e565b509392505050565b5f82601f8301126108915761089061077e565b5b81356108a184826020860161083c565b91505092915050565b5f602082840312156108bf576108be610638565b5b5f82013567ffffffffffffffff8111156108dc576108db61063c565b5b6108e88482850161087d565b91505092915050565b5f81519050919050565b5f82825260208201905092915050565b5f819050602082019050919050565b5f82825260208201905092915050565b5f610934826106c6565b61093e818561091a565b935061094e8185602086016106e0565b61095781610708565b840191505092915050565b61096b81610640565b82525050565b5f604083015f8301518482035f86015261098b828261092a565b91505060208301516109a06020860182610962565b508091505092915050565b5f6109b68383610971565b905092915050565b5f602082019050919050565b5f6109d4826108f1565b6109de81856108fb565b9350836020820285016109f08561090b565b805f5b85811015610a2b5784840389528151610a0c85826109ab565b9450610a17836109be565b925060208a019950506001810190506109f3565b50829750879550505050505092915050565b5f6020820190508181035f830152610a5581846109ca565b905092915050565b5f8115159050919050565b610a7181610a5d565b82525050565b5f602082019050610a8a5f830184610a68565b92915050565b5f73ffffffffffffffffffffffffffffffffffffffff82169050919050565b5f610ab982610a90565b9050919050565b610ac981610aaf565b8114610ad3575f80fd5b50565b5f81359050610ae481610ac0565b92915050565b5f60208284031215610aff57610afe610638565b5b5f610b0c84828501610ad6565b91505092915050565b7f616c726561647920766f7465642e0000000000000000000000000000000000005f82015250565b5f610b49600e836106d0565b9150610b5482610b15565b602082019050919050565b5f6020820190508181035f830152610b7681610b3d565b9050919050565b7f496e76616c69642063616e64696461746520696e6465782e00000000000000005f82015250565b5f610bb16018836106d0565b9150610bbc82610b7d565b602082019050919050565b5f6020820190508181035f830152610bde81610ba5565b9050919050565b7f4e487b71000000000000000000000000000000000000000000000000000000005f52603260045260245ffd5b7f4e487b71000000000000000000000000000000000000000000000000000000005f52601160045260245ffd5b5f610c4982610640565b91507fffffffffffffffffffffffffffffffffffffffffffffffffffffffffffffffff8203610c7b57610c7a610c12565b5b600182019050919050565b7f4e487b71000000000000000000000000000000000000000000000000000000005f52602260045260245ffd5b5f6002820490506001821680610cca57607f821691505b602082108103610cdd57610cdc610c86565b5b50919050565b5f819050815f5260205f209050919050565b5f6020601f8301049050919050565b5f82821b905092915050565b5f60088302610d3f7fffffffffffffffffffffffffffffffffffffffffffffffffffffffffffffffff82610d04565b610d498683610d04565b95508019841693508086168417925050509392505050565b5f819050919050565b5f610d84610d7f610d7a84610640565b610d61565b610640565b9050919050565b5f819050919050565b610d9d83610d6a565b610db1610da982610d8b565b848454610d10565b825550505050565b5f90565b610dc5610db9565b610dd0818484610d94565b505050565b5b81811015610df357610de85f82610dbd565b600181019050610dd6565b5050565b601f821115610e3857610e0981610ce3565b610e1284610cf5565b81016020851015610e21578190505b610e35610e2d85610cf5565b830182610dd5565b50505b505050565b5f82821c905092915050565b5f610e585f1984600802610e3d565b1980831691505092915050565b5f610e708383610e49565b9150826002028217905092915050565b610e89826106c6565b67ffffffffffffffff811115610ea257610ea1610786565b5b610eac8254610cb3565b610eb7828285610df7565b5f60209050601f831160018114610ee8575f8415610ed6578287015190505b610ee08582610e65565b865550610f47565b601f198416610ef686610ce3565b5f5b82811015610f1d57848901518255600182019150602085019450602081019050610ef8565b86831015610f3a5784890151610f36601f891682610e49565b8355505b6001600288020188555050505b505050505050565b7f566f74696e6720686173206e6f742073746172746564207965742e00000000005f82015250565b5f610f83601b836106d0565b9150610f8e82610f4f565b602082019050919050565b5f6020820190508181035f830152610fb081610f77565b9050919050565b5f610fc182610640565b9150610fcc83610640565b9250828203905081811115610fe457610fe3610c12565b5b9291505056fea26469706673582212201c92195a9db2688626bd1c13b7c9b7e31a9df30c9362996319dc87aab9eca96164736f6c63430008150033",
  "immutableReferences": {},
  "source": "// SPDX-License-Identifier: MIT\npragma solidity ^0.8.0;\n\ncontract Voting {\n    struct Candidate {\n        string name;\n        uint256 voteCount;\n    }\n\n    Candidate[] public candidates;\n    address owner;\n    mapping(address => bool) public voters;\n\n    uint256 public votingStart;\n    uint256 public votingEnd;\n\n    constructor(string[] memory _candidateNames, uint256 _durationInMinutes) {\n        for (uint256 i = 0; i < _candidateNames.length; i++) {\n            candidates.push(Candidate({name: _candidateNames[i],voteCount: 0}));\n            }\n        owner = msg.sender;\n        votingStart = block.timestamp;\n        votingEnd = block.timestamp + (_durationInMinutes * 1 minutes);\n        }\n\n    modifier onlyOwner {\n        require(msg.sender == owner);\n        _;\n    }\n\n    function addCandidate(string memory _name) public onlyOwner {\n        candidates.push(Candidate({name: _name,voteCount: 0}));\n    }\n\n    function vote(uint256 _candidateIndex) public {\n        require(!voters[msg.sender], \"already voted.\");\n        require(_candidateIndex < candidates.length, \"Invalid candidate index.\");\n\n        candidates[_candidateIndex].voteCount++;\n        voters[msg.sender] = true;\n    }\n\n    function getAllVotesOfCandiates() public view returns (Candidate[] memory){\n        return candidates;\n    }\n\n    function getVotingStatus() public view returns (bool) {\n        return (block.timestamp >= votingStart && block.timestamp < votingEnd);\n    }\n\n    function getRemainingTime() public view returns (uint256) {\n        require(block.timestamp >= votingStart, \"Voting has not started yet.\");\n        if (block.timestamp >= votingEnd) {\n            return 0;\n    }\n        return votingEnd - block.timestamp;\n    }\n}",
  "sourcePath": "/home/cctl/Music/truffle/application_01/smartcontracts/contracts/Voting.sol",
  "compiler": {
    "name": "solc",
    "version": "0.8.21+commit.d9974bed.Emscripten.clang"
  },
  "schemaVersion": "3.4.16",
  "updatedAt": "2024-04-05T07:27:30.008Z",
  "networkType": "ethereum",
  "devdoc": {
    "kind": "dev",
    "methods": {},
    "version": 1
  },
  "userdoc": {
    "kind": "user",
    "methods": {},
    "version": 1
  }
}